HEADER-014                                                                                                                                                           00000007000000000000000000200908130000000000000                                                                                                         00000000    0000000000000000000000
1851931   Ι 117995  ΤΖΓΙΑΣΤΑ                 ΜΑΡΙΑΝΘΗ ΒΙΚΤΩΡΡΟΥΜΕΛΗΣ                   31    ΠΕΙΡΑΙΑΣ                      ΑΘΗΝΑ          185422104927805 6974939614 99921937212259000001120003200908130108772001379ΣΥΝΤΑΞΗ ΙΚΑ                        ΡΟΥΜΕΛΗΣ                                                              00000000    0000000000000000007258
1652363   762738Ξ   ΚΑΓΙΑΑΣ                  ΙΩΑΝΝΗΣ Κ ΣΙΑ ΟΜ.ΑΛΕΞΑΝΔΡΟΥ               18    ΑΛΕΞΑΝΔΡΟΥΠΟΛΗ                ΑΛΕΞΑΝΔΡΟΥΠΟΛΗ 681002551027897 2551026539 99911969212228000012380003200908130011558000008ΙΔΙΟΣ                              ΑΥΤ.ΘΕΟΔΩΡΑΣ (ΟΙΚΙΑ)                                                  00000000    0000000000000000000042
1089717   ΕΑΣ 235882ΜΟΓΙΑΣ                   ΑΝΤΩΝΙΟΣ       ΒΟΥΛΓΑΡΟΚΤΟΝΟΥ             14    ΑΛΕΞΑΝΔΡΟΥΠΟΛΗ                ΑΛΕΞΑΝΔΡΟΥΠΟΛΗ 681002551081965 2551066137 99911956212226000004020003200908130062938000430ΑΣΤΥΝΟΜΙΚΟ ΤΜΗΜΑ ΑΛΕΞ/ΠΟΛΕΩΣ       ΚΑΡΑΙΣΚΑΚΗ                                                            00000000    0000000000000000002262
1086370   303001801/ΚΟΥΓΙΑΙΔΗΣ               ΔΗΜΗΤΡΙΟΣ      ΑΡΓΥΡΟΚΑΣΤΡΟΥ              1     ΑΛΕΞΑΝΔΡΟΥΠΟΛΗ                ΑΛΕΞΑΝΔΡΟΥΠΟΛΗ 681002551038335-2551034243 99911982212228000012370003200908130116196000343642 ΜΚΤΠ                           ΠΡΟΒΑΤΩΝΑΣ                                                            00000000    0000000000000000001804
1014441   Ρ.374256  ΠΓΙΑΑ                    ΚΩΝΣΤΑΝΤΙΝΑ    ΠΕΡΙΑΝΔΡΟΥ                 31    ΚΟΡΙΝΘΟΣ                      ΚΟΡΙΝΘΟΣ       201002741027619 2741083318 99921950212236000006640003200908130062002000760ΙΔΙΑ                               ΙΔΙΑ                                                                  00000000    0000000000000000003998
0531036   ΑΕ 418951 ΤΣΟΓΙΑΑΤΖΙΔΗΣ            ΧΑΡΑΛΑΜΠΟΣ     ΣΥΛΑΤΩΝ                    7     ΑΛΕΞΑΝΔΡΟΥΠΟΛΗ                ΑΛΕΞΑΝΔΡΟΥΠΟΛΗ 681002551023658 0551088860 99911945212228000012400003200908130049246000143ΔΙΕΥΘ/ΝΣΗ ΤΕΧΝΙΚΩΝ ΥΠΗΡΕΣΙΩΝ       Ι.ΔΡΑΓΟΥΜΗ                                                            00000000    0000000000000000000754
0507882   AZ912235  ΠΑΥΓΙΑΗΣ                 ΑΘΑΝΑΣΙΟΣ      ΒΙΖΒΥΖΗ                    91    ΑΛΕΞΑΝΔΡΟΥΠΟΛΗ                ΑΛΕΞΑΝΔΡΟΥΠΟΛΗ 681002551033934-016611099  99911957212228000012390003200908130128860000312ΙΔΙΟΣ                              ΙΔΙΑ                                                                  00000000    0000000000000000001640
HEADER-014                                                                                                                                                           00000010000000000000000000200908140000000000000                                                                                                         00000000    0000000000000000000000
1852825   Τ295937   ΔΗΓΙΑΗΣ                  ΣΑΒΒΑΣ         ΑΡΧΑΓΓΕΛΟΣ                 0     ΡΟΔΟΣ                         ΡΟΔΟΣ          851026937104129-2241024000 99911955222238000010860003200908140019851000009PORTO ANGELI                       ΑΡΧΕΓΓΕΛΟΣ                                                            00000000    0000000000000000000049
1852197   Χ486784   ΘΕΟΓΙΑΟΠΟΥΛΟΣ            ΚΩΝΣΤΑΝΤΙΝΟΣ   ΚΑΤΩ ΤΙΘΟΡΕΑ ΦΘΙΩΤΙΔΟΣ     .     ΚΑΤΩ ΤΙΘΟΡΕΑ                  ΛΙΒΑΔΕΙΑ       350152234049818 2234023570 99911978212240000006840003200908140168459001529ΠΥΡΟΣΒΕΣΤΙΚΗ ΥΠΗΡΕΣΙΑ ΑΜΦΙΚΛΕΙΑΣ   ΑΜΦΙΚΛΕΙΑ                                                             00000000    0000000000000000008046
1741533   Κ 159634  ΠΑΠΑΛΑΜΙΑΝΝΗ             ΧΑΡΑ           ΑΓΙΑΣ ΛΑΥΡΑΣ               111   ΠΕΤΡΟΥΠΟΛΗ                    ΑΘΗΝΑ          132312105061747 2102445876 99921937212218000010610003200908140030013000101ΙΚΑ                                .                                                                     00000000    0000000000000000000532
1400822   ΑΒ491138  ΦΟΛΑΜΙΣ                  ΑΘΑΝΑΣΙΟΣ      ΦΙΤΣΙΟΥ                    75    ΛΑΜΙΑ                         ΛΑΜΙΑ          351002231047214-2231022004 99911961212251000001960003200908140091281000308ΙΔΙΟΣ                              ΚΑΡΑΪΣΚΑΚΗ                                                            00000000    0000000000000000001619
1353993   Σ203682   ΛΟΓΛΑΜΙΚΗΣ               ΘΕΟΔΩΡΟΣ       ΣΑΛΑΜΙΝΟΣ                  21    ΜΑΝΔΡΑ                        MAΝΔΡΑ         196006942078346*2105545116 99911983222263000000350003200908140044928000546ΛΟΓΚΑΡΑΚΗΣ ΘΕΟΔΩΡΟΣ                ΙΕΡΑ ΟΔΟΣ& ΑΕΡΟΔΡΟΜΙΟΥ                                                00000000    0000000000000000002872
1349361    Τ.373877 ΜΑΥΛΑΜΙΤΗ                ΒΑΣΙΛΙΚΗ       ΚΑΡΙΔΥΤΣΑ                  .     ΚΟΖΑΝΗ                        ΚΟΖΑΝΗ         501002461063543 2461021471 99921969222256000012660003200908140130665000824ΜΑΡΙΝΟΠΟΥΛΟΣ                       ΒΕΡΜΙΟΥ                                                               00000000    0000000000000000004335
1110585   ΑΕ 346554 ΦΡΛΑΜΙΣ                  ΚΩΝΣΤΑΝΤΙΝΟΣ   ΔΟΥΒΑΤΖΗ                   24    ΓΙΑΝΝΙΤΣΑ                     ΓΙΑΝΝΙΤΣΑ      581002382025235 2382025235 99911973212255000003600003200908140048361000311Ο ΙΔΙΟΣ                            ΔΟΥΒΑΤΖΗ                                                              00000000    0000000000000000001639
0720199   Τ381337   ΦΑΛΑΜΙΟΥ                 ΒΑΣΙΛΙΚΗ       ΝΟΤΑΡΑ                     66    ΚΟΡΙΝΘΟΣ                      ΚΟΡΙΝΘΟΣ       201002741028611 2744065501 99921977222236000006650003200908140053986000337ΚΑΖΙΝΟ ΛΟΥΤΡΑΚΙΟΥ                  ΛΟΥΤΡΑΚΙ                                                              00000000.   0000000000000000001774
0611503   A 334325  ΛΑΜΙ                     MARKO          ΣΤΕΦ. ΚΥΠΑΡΙΣΣΟΥ           11    ΠΑΤΗΣΙΑ                       ΑΘΗΝΑ          111442102285818 2102286911 99911964212222000003370003200908140060511000378ΙΔΙΟΣ                              ΚΩΣΤΗ ΠΑΛΑΜΑ                                                          00000000    0000000000000000001989
020362    Π665688   ΑΚΛΑΜΙΥ                  ΠΑΝΑΓΙΩΤΑ      ΚΑΛΛΙΓΑ                    18    ΓΚΥΖΗ                         ΑΘΗΝΑ          114742106426125 5703185    99921976222211000039050003200908140025232000146ΗΛΕΚΤΡΟΝΙΚΗ ΑΘΗΝΩΝ ΑΕ              ΕΘΝ.ΜΑΚΑΡΙΟΥ                                                          0501230166  0000000000000000000768
HEADER-014                                                                                                                                                           00000008000000000000000000200908170000000000000                                                                                                         00000000    0000000000000000000000
1504173   Ν473771   ΓΙΑΝΝΛΑΜΙΚΗΣ             ΔΗΜΗΤΡΙΟΣ      ΑΝΑΛΗΨΗ                    0     ΜΕΣΣΗΝΗ                       ΚΑΛΑΜΑΤΑ       242002722022086&6946905443-99911971212261000000050003200908170187935000808ΕΡΓΟΤΕΜ                            ΔΕΗ ΜΕΓΑΛΟΠΟΛΗΣ                                                       00000000    0000000000000000004252
0949482   Π862841   ΚΑΒΛΑΜΙΟΥ                ΖΩΗ            ΛΑΧΑΝΑ                     8     ΛΕΙΒΑΔΙΑ                      ΛΙΒΑΔΕΙΑ       321002261022392 2261026601 99921975222240000006860003200908170012683000041ΗΛΕΚΤΡΟΝΙΚΗ ΑΘΗΝΩΝ                 ΚΑΛΙΑΓΚΑΚΗ                                                            00000000    0000000000000000000217
0949482   Π862841   ΚΑΒΛΑΜΙΟΥ                ΖΩΗ            ΛΑΧΑΝΑ                     8     ΛΕΙΒΑΔΙΑ                      ΛΙΒΑΔΕΙΑ       321002261022392 2261026601 99921975222240000006850003200908170033217000320ΗΛΕΚΤΡΟΝΙΚΗ ΑΘΗΝΩΝ                 ΚΑΛΙΑΓΚΑΚΗ                                                            00000000    0000000000000000001683
0909950   Μ 218887  ΣΛΑΜΙΠΟΥΛΟΣ              ΣΠΥΡΙΔΩΝ       ΚΟΡΙΝΘΟΥ                   211   ΠΑΤΡΑ                         ΠΑΤΡΑ          262212610277904*2610455200 99921961212216000032070003200908170072302000855ΗΛΕΚΤΡΟΝΙΚΗ ΑΘΗΝΩΝ Α.Ε.Ε.          Ν.Ε.Ο. ΠΑΤΡΩΝ ΑΘΗΝΩΝ                                                  00000000    0000000000000000004498
0884831   241256    ΤΣΕΛΑΜΙΑΣ                ΔΗΜΗΤΡΙΟΣ      ΠΡΑΞΙΤΕΛΟΥΣ                63    ΚΑΛΑΜΑΤΑ                      ΚΑΛΑΜΑΤΑ       241002721083709 2721044671 99911964212261000000060003200908170031124000104ΔΗΜΟΣΙΟ                            ΝΕΑ ΕΙΣΟΔΟΣ                                                           00000000    0000000000000000000546
0844732   Χ.621918  ΓΙΑΛΑΜΙΙΔΟΥ              ΣΟΦΙΑ          ΠΥΛΗ ΑΕΡΟΔΡΟΜΙΟΥ Β         .     ΕΛΕΥΣΙΝΑ                      ΠΕΙΡΑΙΑΣ       192006970136765*2105547381 99921965212263000000360003200908170071572000871ΔΗΜΟΣ ΕΛΕΥΣΙΝΟΣ                    ΧΑΤΖΗΔΑΚΗ ΚΑΙ ΠΑΓΚΑΛΟΥ                                                00000000    0000000000000000004585
0797899   Ξ.638951  ΤΟΛΑΜΙΥΡΑΣ               ΔΗΜΗΤΡΙΟΣ ΤΟΥ ΣΚΡΟΚΟ                      0     ΚΟΖΑΝΗ                        ΚΟΖΑΝΗ         500102461063490 2461099431 99911971212256000012670003200908170009852000028Ο ΙΔΙΟΣ                            ΚΡΟΚΟΣ                                                                00000000    0000000000000000000148
0561502   Α 890324  ΑΡΛΑΜΙ                   ΑΦΡΟΔΙΤΗ       ΜΑΚΡΥΓΙΑΝΝΗ                35    ΚΕΡΑΤΣΙΝΙ                     ΠΕΙΡΑΙΑΣ       187580104320425 0104315642 99921930212244000002640003200908170043613000530ΣΥΝΤΑΞΙΟΥΧΟΣ ΙΚΑ                   ΙΚΑ ΚΕΡΑΤΣΙΝΙΟΥ                                                       00000000    0000000000000000002787
